{
	"contracts/bài tập 3/Lesson3.sol": {
		"Lesson3": {
			"abi": [
				{
					"inputs": [],
					"stateMutability": "nonpayable",
					"type": "constructor"
				},
				{
					"inputs": [
						{
							"internalType": "uint256",
							"name": "num",
							"type": "uint256"
						}
					],
					"name": "increaseX",
					"outputs": [],
					"stateMutability": "nonpayable",
					"type": "function"
				},
				{
					"inputs": [],
					"name": "x",
					"outputs": [
						{
							"internalType": "uint256",
							"name": "",
							"type": "uint256"
						}
					],
					"stateMutability": "view",
					"type": "function"
				}
			],
			"devdoc": {
				"kind": "dev",
				"methods": {},
				"version": 1
			},
			"evm": {
				"assembly": "    /* \"contracts/b\\xc3\\xa0i t\\xe1\\xba\\xadp 3/Lesson3.sol\":58:286  contract Lesson3 {... */\n  mstore(0x40, 0x80)\n    /* \"contracts/b\\xc3\\xa0i t\\xe1\\xba\\xadp 3/Lesson3.sol\":104:150  constructor () {... */\n  callvalue\n  dup1\n  iszero\n  tag_1\n  jumpi\n  0x00\n  dup1\n  revert\ntag_1:\n  pop\n    /* \"contracts/b\\xc3\\xa0i t\\xe1\\xba\\xadp 3/Lesson3.sol\":134:135  0 */\n  0x00\n    /* \"contracts/b\\xc3\\xa0i t\\xe1\\xba\\xadp 3/Lesson3.sol\":130:131  x */\n  dup1\n    /* \"contracts/b\\xc3\\xa0i t\\xe1\\xba\\xadp 3/Lesson3.sol\":130:135  x = 0 */\n  dup2\n  swap1\n  sstore\n  pop\n    /* \"contracts/b\\xc3\\xa0i t\\xe1\\xba\\xadp 3/Lesson3.sol\":58:286  contract Lesson3 {... */\n  dataSize(sub_0)\n  dup1\n  dataOffset(sub_0)\n  0x00\n  codecopy\n  0x00\n  return\nstop\n\nsub_0: assembly {\n        /* \"contracts/b\\xc3\\xa0i t\\xe1\\xba\\xadp 3/Lesson3.sol\":58:286  contract Lesson3 {... */\n      mstore(0x40, 0x80)\n      callvalue\n      dup1\n      iszero\n      tag_1\n      jumpi\n      0x00\n      dup1\n      revert\n    tag_1:\n      pop\n      jumpi(tag_2, lt(calldatasize, 0x04))\n      shr(0xe0, calldataload(0x00))\n      dup1\n      0x0c55699c\n      eq\n      tag_3\n      jumpi\n      dup1\n      0x9758d20d\n      eq\n      tag_4\n      jumpi\n    tag_2:\n      0x00\n      dup1\n      revert\n        /* \"contracts/b\\xc3\\xa0i t\\xe1\\xba\\xadp 3/Lesson3.sol\":82:95  uint public x */\n    tag_3:\n      tag_5\n      tag_6\n      jump\t// in\n    tag_5:\n      mload(0x40)\n      tag_7\n      swap2\n      swap1\n      tag_8\n      jump\t// in\n    tag_7:\n      mload(0x40)\n      dup1\n      swap2\n      sub\n      swap1\n      return\n        /* \"contracts/b\\xc3\\xa0i t\\xe1\\xba\\xadp 3/Lesson3.sol\":156:283  function increaseX(uint num) public {... */\n    tag_4:\n      tag_9\n      0x04\n      dup1\n      calldatasize\n      sub\n      dup2\n      add\n      swap1\n      tag_10\n      swap2\n      swap1\n      tag_11\n      jump\t// in\n    tag_10:\n      tag_12\n      jump\t// in\n    tag_9:\n      stop\n        /* \"contracts/b\\xc3\\xa0i t\\xe1\\xba\\xadp 3/Lesson3.sol\":82:95  uint public x */\n    tag_6:\n      sload(0x00)\n      dup2\n      jump\t// out\n        /* \"contracts/b\\xc3\\xa0i t\\xe1\\xba\\xadp 3/Lesson3.sol\":156:283  function increaseX(uint num) public {... */\n    tag_12:\n        /* \"contracts/b\\xc3\\xa0i t\\xe1\\xba\\xadp 3/Lesson3.sol\":219:220  0 */\n      0x00\n        /* \"contracts/b\\xc3\\xa0i t\\xe1\\xba\\xadp 3/Lesson3.sol\":213:216  num */\n      dup2\n        /* \"contracts/b\\xc3\\xa0i t\\xe1\\xba\\xadp 3/Lesson3.sol\":213:220  num > 0 */\n      gt\n        /* \"contracts/b\\xc3\\xa0i t\\xe1\\xba\\xadp 3/Lesson3.sol\":203:255  require ( num > 0, \"Gia tri tham so phai lon hon 0\") */\n      tag_14\n      jumpi\n      mload(0x40)\n      0x08c379a000000000000000000000000000000000000000000000000000000000\n      dup2\n      mstore\n      0x04\n      add\n      tag_15\n      swap1\n      tag_16\n      jump\t// in\n    tag_15:\n      mload(0x40)\n      dup1\n      swap2\n      sub\n      swap1\n      revert\n    tag_14:\n        /* \"contracts/b\\xc3\\xa0i t\\xe1\\xba\\xadp 3/Lesson3.sol\":271:274  num */\n      dup1\n        /* \"contracts/b\\xc3\\xa0i t\\xe1\\xba\\xadp 3/Lesson3.sol\":266:267  x */\n      0x00\n      dup1\n        /* \"contracts/b\\xc3\\xa0i t\\xe1\\xba\\xadp 3/Lesson3.sol\":266:274  x += num */\n      dup3\n      dup3\n      sload\n      tag_17\n      swap2\n      swap1\n      tag_18\n      jump\t// in\n    tag_17:\n      swap3\n      pop\n      pop\n      dup2\n      swap1\n      sstore\n      pop\n        /* \"contracts/b\\xc3\\xa0i t\\xe1\\xba\\xadp 3/Lesson3.sol\":156:283  function increaseX(uint num) public {... */\n      pop\n      jump\t// out\n        /* \"#utility.yul\":7:84   */\n    tag_19:\n        /* \"#utility.yul\":44:51   */\n      0x00\n        /* \"#utility.yul\":73:78   */\n      dup2\n        /* \"#utility.yul\":62:78   */\n      swap1\n      pop\n        /* \"#utility.yul\":7:84   */\n      swap2\n      swap1\n      pop\n      jump\t// out\n        /* \"#utility.yul\":90:208   */\n    tag_20:\n        /* \"#utility.yul\":177:201   */\n      tag_33\n        /* \"#utility.yul\":195:200   */\n      dup2\n        /* \"#utility.yul\":177:201   */\n      tag_19\n      jump\t// in\n    tag_33:\n        /* \"#utility.yul\":172:175   */\n      dup3\n        /* \"#utility.yul\":165:202   */\n      mstore\n        /* \"#utility.yul\":90:208   */\n      pop\n      pop\n      jump\t// out\n        /* \"#utility.yul\":214:436   */\n    tag_8:\n        /* \"#utility.yul\":307:311   */\n      0x00\n        /* \"#utility.yul\":345:347   */\n      0x20\n        /* \"#utility.yul\":334:343   */\n      dup3\n        /* \"#utility.yul\":330:348   */\n      add\n        /* \"#utility.yul\":322:348   */\n      swap1\n      pop\n        /* \"#utility.yul\":358:429   */\n      tag_35\n        /* \"#utility.yul\":426:427   */\n      0x00\n        /* \"#utility.yul\":415:424   */\n      dup4\n        /* \"#utility.yul\":411:428   */\n      add\n        /* \"#utility.yul\":402:408   */\n      dup5\n        /* \"#utility.yul\":358:429   */\n      tag_20\n      jump\t// in\n    tag_35:\n        /* \"#utility.yul\":214:436   */\n      swap3\n      swap2\n      pop\n      pop\n      jump\t// out\n        /* \"#utility.yul\":523:640   */\n    tag_22:\n        /* \"#utility.yul\":632:633   */\n      0x00\n        /* \"#utility.yul\":629:630   */\n      dup1\n        /* \"#utility.yul\":622:634   */\n      revert\n        /* \"#utility.yul\":769:891   */\n    tag_24:\n        /* \"#utility.yul\":842:866   */\n      tag_40\n        /* \"#utility.yul\":860:865   */\n      dup2\n        /* \"#utility.yul\":842:866   */\n      tag_19\n      jump\t// in\n    tag_40:\n        /* \"#utility.yul\":835:840   */\n      dup2\n        /* \"#utility.yul\":832:867   */\n      eq\n        /* \"#utility.yul\":822:885   */\n      tag_41\n      jumpi\n        /* \"#utility.yul\":881:882   */\n      0x00\n        /* \"#utility.yul\":878:879   */\n      dup1\n        /* \"#utility.yul\":871:883   */\n      revert\n        /* \"#utility.yul\":822:885   */\n    tag_41:\n        /* \"#utility.yul\":769:891   */\n      pop\n      jump\t// out\n        /* \"#utility.yul\":897:1036   */\n    tag_25:\n        /* \"#utility.yul\":943:948   */\n      0x00\n        /* \"#utility.yul\":981:987   */\n      dup2\n        /* \"#utility.yul\":968:988   */\n      calldataload\n        /* \"#utility.yul\":959:988   */\n      swap1\n      pop\n        /* \"#utility.yul\":997:1030   */\n      tag_43\n        /* \"#utility.yul\":1024:1029   */\n      dup2\n        /* \"#utility.yul\":997:1030   */\n      tag_24\n      jump\t// in\n    tag_43:\n        /* \"#utility.yul\":897:1036   */\n      swap3\n      swap2\n      pop\n      pop\n      jump\t// out\n        /* \"#utility.yul\":1042:1371   */\n    tag_11:\n        /* \"#utility.yul\":1101:1107   */\n      0x00\n        /* \"#utility.yul\":1150:1152   */\n      0x20\n        /* \"#utility.yul\":1138:1147   */\n      dup3\n        /* \"#utility.yul\":1129:1136   */\n      dup5\n        /* \"#utility.yul\":1125:1148   */\n      sub\n        /* \"#utility.yul\":1121:1153   */\n      slt\n        /* \"#utility.yul\":1118:1237   */\n      iszero\n      tag_45\n      jumpi\n        /* \"#utility.yul\":1156:1235   */\n      tag_46\n      tag_22\n      jump\t// in\n    tag_46:\n        /* \"#utility.yul\":1118:1237   */\n    tag_45:\n        /* \"#utility.yul\":1276:1277   */\n      0x00\n        /* \"#utility.yul\":1301:1354   */\n      tag_47\n        /* \"#utility.yul\":1346:1353   */\n      dup5\n        /* \"#utility.yul\":1337:1343   */\n      dup3\n        /* \"#utility.yul\":1326:1335   */\n      dup6\n        /* \"#utility.yul\":1322:1344   */\n      add\n        /* \"#utility.yul\":1301:1354   */\n      tag_25\n      jump\t// in\n    tag_47:\n        /* \"#utility.yul\":1291:1354   */\n      swap2\n      pop\n        /* \"#utility.yul\":1247:1364   */\n      pop\n        /* \"#utility.yul\":1042:1371   */\n      swap3\n      swap2\n      pop\n      pop\n      jump\t// out\n        /* \"#utility.yul\":1377:1546   */\n    tag_26:\n        /* \"#utility.yul\":1461:1472   */\n      0x00\n        /* \"#utility.yul\":1495:1501   */\n      dup3\n        /* \"#utility.yul\":1490:1493   */\n      dup3\n        /* \"#utility.yul\":1483:1502   */\n      mstore\n        /* \"#utility.yul\":1535:1539   */\n      0x20\n        /* \"#utility.yul\":1530:1533   */\n      dup3\n        /* \"#utility.yul\":1526:1540   */\n      add\n        /* \"#utility.yul\":1511:1540   */\n      swap1\n      pop\n        /* \"#utility.yul\":1377:1546   */\n      swap3\n      swap2\n      pop\n      pop\n      jump\t// out\n        /* \"#utility.yul\":1552:1732   */\n    tag_27:\n        /* \"#utility.yul\":1692:1724   */\n      0x47696120747269207468616d20736f2070686169206c6f6e20686f6e20300000\n        /* \"#utility.yul\":1688:1689   */\n      0x00\n        /* \"#utility.yul\":1680:1686   */\n      dup3\n        /* \"#utility.yul\":1676:1690   */\n      add\n        /* \"#utility.yul\":1669:1725   */\n      mstore\n        /* \"#utility.yul\":1552:1732   */\n      pop\n      jump\t// out\n        /* \"#utility.yul\":1738:2104   */\n    tag_28:\n        /* \"#utility.yul\":1880:1883   */\n      0x00\n        /* \"#utility.yul\":1901:1968   */\n      tag_51\n        /* \"#utility.yul\":1965:1967   */\n      0x1e\n        /* \"#utility.yul\":1960:1963   */\n      dup4\n        /* \"#utility.yul\":1901:1968   */\n      tag_26\n      jump\t// in\n    tag_51:\n        /* \"#utility.yul\":1894:1968   */\n      swap2\n      pop\n        /* \"#utility.yul\":1977:2070   */\n      tag_52\n        /* \"#utility.yul\":2066:2069   */\n      dup3\n        /* \"#utility.yul\":1977:2070   */\n      tag_27\n      jump\t// in\n    tag_52:\n        /* \"#utility.yul\":2095:2097   */\n      0x20\n        /* \"#utility.yul\":2090:2093   */\n      dup3\n        /* \"#utility.yul\":2086:2098   */\n      add\n        /* \"#utility.yul\":2079:2098   */\n      swap1\n      pop\n        /* \"#utility.yul\":1738:2104   */\n      swap2\n      swap1\n      pop\n      jump\t// out\n        /* \"#utility.yul\":2110:2529   */\n    tag_16:\n        /* \"#utility.yul\":2276:2280   */\n      0x00\n        /* \"#utility.yul\":2314:2316   */\n      0x20\n        /* \"#utility.yul\":2303:2312   */\n      dup3\n        /* \"#utility.yul\":2299:2317   */\n      add\n        /* \"#utility.yul\":2291:2317   */\n      swap1\n      pop\n        /* \"#utility.yul\":2363:2372   */\n      dup2\n        /* \"#utility.yul\":2357:2361   */\n      dup2\n        /* \"#utility.yul\":2353:2373   */\n      sub\n        /* \"#utility.yul\":2349:2350   */\n      0x00\n        /* \"#utility.yul\":2338:2347   */\n      dup4\n        /* \"#utility.yul\":2334:2351   */\n      add\n        /* \"#utility.yul\":2327:2374   */\n      mstore\n        /* \"#utility.yul\":2391:2522   */\n      tag_54\n        /* \"#utility.yul\":2517:2521   */\n      dup2\n        /* \"#utility.yul\":2391:2522   */\n      tag_28\n      jump\t// in\n    tag_54:\n        /* \"#utility.yul\":2383:2522   */\n      swap1\n      pop\n        /* \"#utility.yul\":2110:2529   */\n      swap2\n      swap1\n      pop\n      jump\t// out\n        /* \"#utility.yul\":2535:2715   */\n    tag_29:\n        /* \"#utility.yul\":2583:2660   */\n      0x4e487b7100000000000000000000000000000000000000000000000000000000\n        /* \"#utility.yul\":2580:2581   */\n      0x00\n        /* \"#utility.yul\":2573:2661   */\n      mstore\n        /* \"#utility.yul\":2680:2684   */\n      0x11\n        /* \"#utility.yul\":2677:2678   */\n      0x04\n        /* \"#utility.yul\":2670:2685   */\n      mstore\n        /* \"#utility.yul\":2704:2708   */\n      0x24\n        /* \"#utility.yul\":2701:2702   */\n      0x00\n        /* \"#utility.yul\":2694:2709   */\n      revert\n        /* \"#utility.yul\":2721:2912   */\n    tag_18:\n        /* \"#utility.yul\":2761:2764   */\n      0x00\n        /* \"#utility.yul\":2780:2800   */\n      tag_57\n        /* \"#utility.yul\":2798:2799   */\n      dup3\n        /* \"#utility.yul\":2780:2800   */\n      tag_19\n      jump\t// in\n    tag_57:\n        /* \"#utility.yul\":2775:2800   */\n      swap2\n      pop\n        /* \"#utility.yul\":2814:2834   */\n      tag_58\n        /* \"#utility.yul\":2832:2833   */\n      dup4\n        /* \"#utility.yul\":2814:2834   */\n      tag_19\n      jump\t// in\n    tag_58:\n        /* \"#utility.yul\":2809:2834   */\n      swap3\n      pop\n        /* \"#utility.yul\":2857:2858   */\n      dup3\n        /* \"#utility.yul\":2854:2855   */\n      dup3\n        /* \"#utility.yul\":2850:2859   */\n      add\n        /* \"#utility.yul\":2843:2859   */\n      swap1\n      pop\n        /* \"#utility.yul\":2878:2881   */\n      dup1\n        /* \"#utility.yul\":2875:2876   */\n      dup3\n        /* \"#utility.yul\":2872:2882   */\n      gt\n        /* \"#utility.yul\":2869:2905   */\n      iszero\n      tag_59\n      jumpi\n        /* \"#utility.yul\":2885:2903   */\n      tag_60\n      tag_29\n      jump\t// in\n    tag_60:\n        /* \"#utility.yul\":2869:2905   */\n    tag_59:\n        /* \"#utility.yul\":2721:2912   */\n      swap3\n      swap2\n      pop\n      pop\n      jump\t// out\n\n    auxdata: 0xa264697066735822122099fb367583427a5f8e725bc90eadb6dc100c36fc9645803b4f03e69fb305412764736f6c63430008160033\n}\n",
				"bytecode": {
					"linkReferences": {},
					"object": "608060405234801561000f575f80fd5b505f808190555061026b806100235f395ff3fe608060405234801561000f575f80fd5b5060043610610034575f3560e01c80630c55699c146100385780639758d20d14610056575b5f80fd5b610040610072565b60405161004d91906100eb565b60405180910390f35b610070600480360381019061006b9190610132565b610077565b005b5f5481565b5f81116100b9576040517f08c379a00000000000000000000000000000000000000000000000000000000081526004016100b0906101b7565b60405180910390fd5b805f808282546100c99190610202565b9250508190555050565b5f819050919050565b6100e5816100d3565b82525050565b5f6020820190506100fe5f8301846100dc565b92915050565b5f80fd5b610111816100d3565b811461011b575f80fd5b50565b5f8135905061012c81610108565b92915050565b5f6020828403121561014757610146610104565b5b5f6101548482850161011e565b91505092915050565b5f82825260208201905092915050565b7f47696120747269207468616d20736f2070686169206c6f6e20686f6e203000005f82015250565b5f6101a1601e8361015d565b91506101ac8261016d565b602082019050919050565b5f6020820190508181035f8301526101ce81610195565b9050919050565b7f4e487b71000000000000000000000000000000000000000000000000000000005f52601160045260245ffd5b5f61020c826100d3565b9150610217836100d3565b925082820190508082111561022f5761022e6101d5565b5b9291505056fea264697066735822122099fb367583427a5f8e725bc90eadb6dc100c36fc9645803b4f03e69fb305412764736f6c63430008160033",
					"opcodes": "PUSH1 0x80 PUSH1 0x40 MSTORE CALLVALUE DUP1 ISZERO PUSH2 0xF JUMPI PUSH0 DUP1 REVERT JUMPDEST POP PUSH0 DUP1 DUP2 SWAP1 SSTORE POP PUSH2 0x26B DUP1 PUSH2 0x23 PUSH0 CODECOPY PUSH0 RETURN INVALID PUSH1 0x80 PUSH1 0x40 MSTORE CALLVALUE DUP1 ISZERO PUSH2 0xF JUMPI PUSH0 DUP1 REVERT JUMPDEST POP PUSH1 0x4 CALLDATASIZE LT PUSH2 0x34 JUMPI PUSH0 CALLDATALOAD PUSH1 0xE0 SHR DUP1 PUSH4 0xC55699C EQ PUSH2 0x38 JUMPI DUP1 PUSH4 0x9758D20D EQ PUSH2 0x56 JUMPI JUMPDEST PUSH0 DUP1 REVERT JUMPDEST PUSH2 0x40 PUSH2 0x72 JUMP JUMPDEST PUSH1 0x40 MLOAD PUSH2 0x4D SWAP2 SWAP1 PUSH2 0xEB JUMP JUMPDEST PUSH1 0x40 MLOAD DUP1 SWAP2 SUB SWAP1 RETURN JUMPDEST PUSH2 0x70 PUSH1 0x4 DUP1 CALLDATASIZE SUB DUP2 ADD SWAP1 PUSH2 0x6B SWAP2 SWAP1 PUSH2 0x132 JUMP JUMPDEST PUSH2 0x77 JUMP JUMPDEST STOP JUMPDEST PUSH0 SLOAD DUP2 JUMP JUMPDEST PUSH0 DUP2 GT PUSH2 0xB9 JUMPI PUSH1 0x40 MLOAD PUSH32 0x8C379A000000000000000000000000000000000000000000000000000000000 DUP2 MSTORE PUSH1 0x4 ADD PUSH2 0xB0 SWAP1 PUSH2 0x1B7 JUMP JUMPDEST PUSH1 0x40 MLOAD DUP1 SWAP2 SUB SWAP1 REVERT JUMPDEST DUP1 PUSH0 DUP1 DUP3 DUP3 SLOAD PUSH2 0xC9 SWAP2 SWAP1 PUSH2 0x202 JUMP JUMPDEST SWAP3 POP POP DUP2 SWAP1 SSTORE POP POP JUMP JUMPDEST PUSH0 DUP2 SWAP1 POP SWAP2 SWAP1 POP JUMP JUMPDEST PUSH2 0xE5 DUP2 PUSH2 0xD3 JUMP JUMPDEST DUP3 MSTORE POP POP JUMP JUMPDEST PUSH0 PUSH1 0x20 DUP3 ADD SWAP1 POP PUSH2 0xFE PUSH0 DUP4 ADD DUP5 PUSH2 0xDC JUMP JUMPDEST SWAP3 SWAP2 POP POP JUMP JUMPDEST PUSH0 DUP1 REVERT JUMPDEST PUSH2 0x111 DUP2 PUSH2 0xD3 JUMP JUMPDEST DUP2 EQ PUSH2 0x11B JUMPI PUSH0 DUP1 REVERT JUMPDEST POP JUMP JUMPDEST PUSH0 DUP2 CALLDATALOAD SWAP1 POP PUSH2 0x12C DUP2 PUSH2 0x108 JUMP JUMPDEST SWAP3 SWAP2 POP POP JUMP JUMPDEST PUSH0 PUSH1 0x20 DUP3 DUP5 SUB SLT ISZERO PUSH2 0x147 JUMPI PUSH2 0x146 PUSH2 0x104 JUMP JUMPDEST JUMPDEST PUSH0 PUSH2 0x154 DUP5 DUP3 DUP6 ADD PUSH2 0x11E JUMP JUMPDEST SWAP2 POP POP SWAP3 SWAP2 POP POP JUMP JUMPDEST PUSH0 DUP3 DUP3 MSTORE PUSH1 0x20 DUP3 ADD SWAP1 POP SWAP3 SWAP2 POP POP JUMP JUMPDEST PUSH32 0x47696120747269207468616D20736F2070686169206C6F6E20686F6E20300000 PUSH0 DUP3 ADD MSTORE POP JUMP JUMPDEST PUSH0 PUSH2 0x1A1 PUSH1 0x1E DUP4 PUSH2 0x15D JUMP JUMPDEST SWAP2 POP PUSH2 0x1AC DUP3 PUSH2 0x16D JUMP JUMPDEST PUSH1 0x20 DUP3 ADD SWAP1 POP SWAP2 SWAP1 POP JUMP JUMPDEST PUSH0 PUSH1 0x20 DUP3 ADD SWAP1 POP DUP2 DUP2 SUB PUSH0 DUP4 ADD MSTORE PUSH2 0x1CE DUP2 PUSH2 0x195 JUMP JUMPDEST SWAP1 POP SWAP2 SWAP1 POP JUMP JUMPDEST PUSH32 0x4E487B7100000000000000000000000000000000000000000000000000000000 PUSH0 MSTORE PUSH1 0x11 PUSH1 0x4 MSTORE PUSH1 0x24 PUSH0 REVERT JUMPDEST PUSH0 PUSH2 0x20C DUP3 PUSH2 0xD3 JUMP JUMPDEST SWAP2 POP PUSH2 0x217 DUP4 PUSH2 0xD3 JUMP JUMPDEST SWAP3 POP DUP3 DUP3 ADD SWAP1 POP DUP1 DUP3 GT ISZERO PUSH2 0x22F JUMPI PUSH2 0x22E PUSH2 0x1D5 JUMP JUMPDEST JUMPDEST SWAP3 SWAP2 POP POP JUMP INVALID LOG2 PUSH5 0x6970667358 0x22 SLT KECCAK256 SWAP10 0xFB CALLDATASIZE PUSH22 0x83427A5F8E725BC90EADB6DC100C36FC9645803B4F03 0xE6 SWAP16 0xB3 SDIV COINBASE 0x27 PUSH5 0x736F6C6343 STOP ADDMOD AND STOP CALLER "
				},
				"gasEstimates": {
					"creation": {
						"codeDepositCost": "123800",
						"executionCost": "5182",
						"totalCost": "128982"
					},
					"external": {
						"increaseX(uint256)": "infinite",
						"x()": "2402"
					}
				},
				"methodIdentifiers": {
					"increaseX(uint256)": "9758d20d",
					"x()": "0c55699c"
				}
			},
			"storageLayout": {
				"storage": [
					{
						"astId": 3,
						"contract": "contracts/bài tập 3/Lesson3.sol:Lesson3",
						"label": "x",
						"offset": 0,
						"slot": "0",
						"type": "t_uint256"
					}
				],
				"types": {
					"t_uint256": {
						"encoding": "inplace",
						"label": "uint256",
						"numberOfBytes": "32"
					}
				}
			},
			"userdoc": {
				"kind": "user",
				"methods": {},
				"version": 1
			}
		}
	}
}