{
	"data": {
		"bytecode": {
			"linkReferences": {},
			"object": "608060405234801561000f575f80fd5b505f80819055506101fe806100235f395ff3fe608060405234801561000f575f80fd5b5060043610610034575f3560e01c80630c55699c14610038578063fe39fe8e14610056575b5f80fd5b610040610072565b60405161004d91906100b5565b60405180910390f35b610070600480360381019061006b91906100fc565b610077565b005b5f5481565b6002816100849190610154565b5f808282546100939190610195565b9250508190555050565b5f819050919050565b6100af8161009d565b82525050565b5f6020820190506100c85f8301846100a6565b92915050565b5f80fd5b6100db8161009d565b81146100e5575f80fd5b50565b5f813590506100f6816100d2565b92915050565b5f60208284031215610111576101106100ce565b5b5f61011e848285016100e8565b91505092915050565b7f4e487b71000000000000000000000000000000000000000000000000000000005f52601160045260245ffd5b5f61015e8261009d565b91506101698361009d565b92508282026101778161009d565b9150828204841483151761018e5761018d610127565b5b5092915050565b5f61019f8261009d565b91506101aa8361009d565b92508282019050808211156101c2576101c1610127565b5b9291505056fea264697066735822122043ad7b67cc7fa331cbd22ab5e60f492bdcd763304fa8cb9bd8c95286e7acf96f64736f6c63430008160033",
			"opcodes": "PUSH1 0x80 PUSH1 0x40 MSTORE CALLVALUE DUP1 ISZERO PUSH2 0xF JUMPI PUSH0 DUP1 REVERT JUMPDEST POP PUSH0 DUP1 DUP2 SWAP1 SSTORE POP PUSH2 0x1FE DUP1 PUSH2 0x23 PUSH0 CODECOPY PUSH0 RETURN INVALID PUSH1 0x80 PUSH1 0x40 MSTORE CALLVALUE DUP1 ISZERO PUSH2 0xF JUMPI PUSH0 DUP1 REVERT JUMPDEST POP PUSH1 0x4 CALLDATASIZE LT PUSH2 0x34 JUMPI PUSH0 CALLDATALOAD PUSH1 0xE0 SHR DUP1 PUSH4 0xC55699C EQ PUSH2 0x38 JUMPI DUP1 PUSH4 0xFE39FE8E EQ PUSH2 0x56 JUMPI JUMPDEST PUSH0 DUP1 REVERT JUMPDEST PUSH2 0x40 PUSH2 0x72 JUMP JUMPDEST PUSH1 0x40 MLOAD PUSH2 0x4D SWAP2 SWAP1 PUSH2 0xB5 JUMP JUMPDEST PUSH1 0x40 MLOAD DUP1 SWAP2 SUB SWAP1 RETURN JUMPDEST PUSH2 0x70 PUSH1 0x4 DUP1 CALLDATASIZE SUB DUP2 ADD SWAP1 PUSH2 0x6B SWAP2 SWAP1 PUSH2 0xFC JUMP JUMPDEST PUSH2 0x77 JUMP JUMPDEST STOP JUMPDEST PUSH0 SLOAD DUP2 JUMP JUMPDEST PUSH1 0x2 DUP2 PUSH2 0x84 SWAP2 SWAP1 PUSH2 0x154 JUMP JUMPDEST PUSH0 DUP1 DUP3 DUP3 SLOAD PUSH2 0x93 SWAP2 SWAP1 PUSH2 0x195 JUMP JUMPDEST SWAP3 POP POP DUP2 SWAP1 SSTORE POP POP JUMP JUMPDEST PUSH0 DUP2 SWAP1 POP SWAP2 SWAP1 POP JUMP JUMPDEST PUSH2 0xAF DUP2 PUSH2 0x9D JUMP JUMPDEST DUP3 MSTORE POP POP JUMP JUMPDEST PUSH0 PUSH1 0x20 DUP3 ADD SWAP1 POP PUSH2 0xC8 PUSH0 DUP4 ADD DUP5 PUSH2 0xA6 JUMP JUMPDEST SWAP3 SWAP2 POP POP JUMP JUMPDEST PUSH0 DUP1 REVERT JUMPDEST PUSH2 0xDB DUP2 PUSH2 0x9D JUMP JUMPDEST DUP2 EQ PUSH2 0xE5 JUMPI PUSH0 DUP1 REVERT JUMPDEST POP JUMP JUMPDEST PUSH0 DUP2 CALLDATALOAD SWAP1 POP PUSH2 0xF6 DUP2 PUSH2 0xD2 JUMP JUMPDEST SWAP3 SWAP2 POP POP JUMP JUMPDEST PUSH0 PUSH1 0x20 DUP3 DUP5 SUB SLT ISZERO PUSH2 0x111 JUMPI PUSH2 0x110 PUSH2 0xCE JUMP JUMPDEST JUMPDEST PUSH0 PUSH2 0x11E DUP5 DUP3 DUP6 ADD PUSH2 0xE8 JUMP JUMPDEST SWAP2 POP POP SWAP3 SWAP2 POP POP JUMP JUMPDEST PUSH32 0x4E487B7100000000000000000000000000000000000000000000000000000000 PUSH0 MSTORE PUSH1 0x11 PUSH1 0x4 MSTORE PUSH1 0x24 PUSH0 REVERT JUMPDEST PUSH0 PUSH2 0x15E DUP3 PUSH2 0x9D JUMP JUMPDEST SWAP2 POP PUSH2 0x169 DUP4 PUSH2 0x9D JUMP JUMPDEST SWAP3 POP DUP3 DUP3 MUL PUSH2 0x177 DUP2 PUSH2 0x9D JUMP JUMPDEST SWAP2 POP DUP3 DUP3 DIV DUP5 EQ DUP4 ISZERO OR PUSH2 0x18E JUMPI PUSH2 0x18D PUSH2 0x127 JUMP JUMPDEST JUMPDEST POP SWAP3 SWAP2 POP POP JUMP JUMPDEST PUSH0 PUSH2 0x19F DUP3 PUSH2 0x9D JUMP JUMPDEST SWAP2 POP PUSH2 0x1AA DUP4 PUSH2 0x9D JUMP JUMPDEST SWAP3 POP DUP3 DUP3 ADD SWAP1 POP DUP1 DUP3 GT ISZERO PUSH2 0x1C2 JUMPI PUSH2 0x1C1 PUSH2 0x127 JUMP JUMPDEST JUMPDEST SWAP3 SWAP2 POP POP JUMP INVALID LOG2 PUSH5 0x6970667358 0x22 SLT KECCAK256 NUMBER 0xAD PUSH28 0x67CC7FA331CBD22AB5E60F492BDCD763304FA8CB9BD8C95286E7ACF9 PUSH16 0x64736F6C634300081600330000000000 "
		},
		"gasEstimates": {
			"creation": {
				"codeDepositCost": "102000",
				"executionCost": "5158",
				"totalCost": "107158"
			},
			"external": {
				"addToX2(uint256)": "infinite",
				"x()": "2402"
			}
		},
		"methodIdentifiers": {
			"addToX2(uint256)": "fe39fe8e",
			"x()": "0c55699c"
		}
	},
	"abi": [
		{
			"inputs": [],
			"stateMutability": "nonpayable",
			"type": "constructor"
		},
		{
			"inputs": [
				{
					"internalType": "uint256",
					"name": "num",
					"type": "uint256"
				}
			],
			"name": "addToX2",
			"outputs": [],
			"stateMutability": "nonpayable",
			"type": "function"
		},
		{
			"inputs": [],
			"name": "x",
			"outputs": [
				{
					"internalType": "uint256",
					"name": "",
					"type": "uint256"
				}
			],
			"stateMutability": "view",
			"type": "function"
		}
	]
}