{
	"data": {
		"bytecode": {
			"linkReferences": {},
			"object": "608060405234801561000f575f80fd5b506101038061001d5f395ff3fe6080604052348015600e575f80fd5b50600436106026575f3560e01c8063946e182c14602a575b5f80fd5b60306045565b604051603c92919060aa565b60405180910390f35b5f805f7ffffffffffffffffffffffffffffffffffffffffffffffffffffffffffffffffe90505f6001905081819350935050509091565b5f819050919050565b608c81607c565b82525050565b5f8115159050919050565b60a4816092565b82525050565b5f60408201905060bb5f8301856085565b60c66020830184609d565b939250505056fea2646970667358221220ff8f68bec96b06988dac50f6b4c58ca7a9e2285b3ef07881bac24d8cbc35b51b64736f6c63430008160033",
			"opcodes": "PUSH1 0x80 PUSH1 0x40 MSTORE CALLVALUE DUP1 ISZERO PUSH2 0xF JUMPI PUSH0 DUP1 REVERT JUMPDEST POP PUSH2 0x103 DUP1 PUSH2 0x1D PUSH0 CODECOPY PUSH0 RETURN INVALID PUSH1 0x80 PUSH1 0x40 MSTORE CALLVALUE DUP1 ISZERO PUSH1 0xE JUMPI PUSH0 DUP1 REVERT JUMPDEST POP PUSH1 0x4 CALLDATASIZE LT PUSH1 0x26 JUMPI PUSH0 CALLDATALOAD PUSH1 0xE0 SHR DUP1 PUSH4 0x946E182C EQ PUSH1 0x2A JUMPI JUMPDEST PUSH0 DUP1 REVERT JUMPDEST PUSH1 0x30 PUSH1 0x45 JUMP JUMPDEST PUSH1 0x40 MLOAD PUSH1 0x3C SWAP3 SWAP2 SWAP1 PUSH1 0xAA JUMP JUMPDEST PUSH1 0x40 MLOAD DUP1 SWAP2 SUB SWAP1 RETURN JUMPDEST PUSH0 DUP1 PUSH0 PUSH32 0xFFFFFFFFFFFFFFFFFFFFFFFFFFFFFFFFFFFFFFFFFFFFFFFFFFFFFFFFFFFFFFFE SWAP1 POP PUSH0 PUSH1 0x1 SWAP1 POP DUP2 DUP2 SWAP4 POP SWAP4 POP POP POP SWAP1 SWAP2 JUMP JUMPDEST PUSH0 DUP2 SWAP1 POP SWAP2 SWAP1 POP JUMP JUMPDEST PUSH1 0x8C DUP2 PUSH1 0x7C JUMP JUMPDEST DUP3 MSTORE POP POP JUMP JUMPDEST PUSH0 DUP2 ISZERO ISZERO SWAP1 POP SWAP2 SWAP1 POP JUMP JUMPDEST PUSH1 0xA4 DUP2 PUSH1 0x92 JUMP JUMPDEST DUP3 MSTORE POP POP JUMP JUMPDEST PUSH0 PUSH1 0x40 DUP3 ADD SWAP1 POP PUSH1 0xBB PUSH0 DUP4 ADD DUP6 PUSH1 0x85 JUMP JUMPDEST PUSH1 0xC6 PUSH1 0x20 DUP4 ADD DUP5 PUSH1 0x9D JUMP JUMPDEST SWAP4 SWAP3 POP POP POP JUMP INVALID LOG2 PUSH5 0x6970667358 0x22 SLT KECCAK256 SELFDESTRUCT DUP16 PUSH9 0xBEC96B06988DAC50F6 0xB4 0xC5 DUP13 0xA7 0xA9 0xE2 0x28 JUMPDEST RETURNDATACOPY CREATE PUSH25 0x81BAC24D8CBC35B51B64736F6C634300081600330000000000 "
		},
		"gasEstimates": {
			"creation": {
				"codeDepositCost": "51800",
				"executionCost": "103",
				"totalCost": "51903"
			},
			"external": {
				"returnTwo()": "453"
			}
		},
		"methodIdentifiers": {
			"returnTwo()": "946e182c"
		}
	},
	"abi": [
		{
			"inputs": [],
			"name": "returnTwo",
			"outputs": [
				{
					"internalType": "int256",
					"name": "",
					"type": "int256"
				},
				{
					"internalType": "bool",
					"name": "",
					"type": "bool"
				}
			],
			"stateMutability": "pure",
			"type": "function"
		}
	]
}